:100153005000006C6F6E67206765000000000000B0
:100163000000004A00104E20422021000000000041
:10008F00E490001CF0A3F01201A7E4FF1201BB9053
:10009F00001CA3E02400F582E43400F583E0FF6048
:1000AF001312012D90001DE004F070E390001CE08E
:1000BF0004F080DB7F441201BBE490001CF0A3F03E
:1000CF0090001AF0A3F090001AE0FEA3E0FFD39483
:1000DF0005EE9400501F74102FF582E43400F58361
:1000EF00E0FF12012D90001BE004F070D990001A70
:0600FF00E004F080D122B4
:10017400C290D291D292007F0A120195E580339207
:0B018400007F0A120195C292A2002227
:1001050090001EEFF012017440FBC29012018F00A7
:100115000090001EE0F5807F0A12019500D2927FC3
:080125000A12019500C29222AA
:10012D0090001EEFF012017440FBD29012018F90DF
:10013D00001EE0F580007F0A120195D292007F0A21
:06014D00120195C292228E
:1001A7007F381201057F0C1201057F061201057FBA
:0401B700010201053B
:0701BB00EF4480FF02010583
:06018F00C291C2927F0A3A
:10019500E4FEEEC39F500AE4FD0DEDB4FFFB0E80B7
:0201A500F12245
:03000000020003F8
:0C000300787FE4F6D8FD75812002004AE9
:10000F0002008FE493A3F8E493A34003F68001F278
:10001F0008DFF48029E493A3F85407240CC8C333F2
:10002F00C4540F4420C8834004F456800146F6DFC1
:10003F00E4800B0102040810204080900153E47EFD
:10004F00019360BCA3FF543F30E509541FFEE493B6
:10005F00A360010ECF54C025E060A840B8E493A37D
:10006F00FAE493A3F8E493A3C8C582C8CAC583CAA8
:10007F00F0A3C8C582C8CAC583CADFE9DEE780BE60
:01017300008B
:00000001FF
